:020000041000EA
:1000000000B5324B212058609868022188439860DF
:10001000D860186158612E4B002199600221596106
:100020000121F02299502B49196001219960352056
:1000300000F044F80222904214D00621196600F024
:1000400034F8196E01211966002018661A6600F04E
:100050002CF8196E196E196E052000F02FF8012189
:100060000842F9D1002199601B49196000215960AB
:100070001A491B48016001219960EB211966A021F2
:10008000196600F012F800219960164914480160C1
:100090000121996001BC002800D000471248134993
:1000A000086003C880F30888084703B5996A0420EC
:1000B0000142FBD001200142F8D103BD02B5186610
:1000C0001866FFF7F2FF186E186E02BD00000240BE
:1000D000000000180000070000035F00212200005C
:1000E000F4000018222000A00001001008ED00E03C
:1000F00000000000000000000000000074B24E7A12
:1001000000200420F7010010C3010010C5010010F9
:10011000C1010010C1010010C1010010C101001097
:10012000C1010010C1010010C1010010C701001081
:10013000C1010010C1010010C9010010CB01001065
:10014000CD010010CD010010CD010010CD01001037
:10015000CD010010CD010010CD010010CD01001027
:10016000CD010010CD010010CD010010CD01001017
:10017000CD010010CD010010CD010010CD01001007
:10018000CD010010CD010010CD010010CD010010F7
:10019000CD010010CD010010CD010010CD010010E7
:1001A000CD010010CD010010CD010010CD010010D7
:1001B000CD010010CD010010CD010010CD010010C7
:1001C00000BE00BE00BE00BE00BE00BE00F04BF888
:1001D000103800BEF2EB8871F05600100C5700107A
:1001E0003402001090A31AE700202149086006C8D5
:1001F00081F3088810471F48006800282FD10DA4FC
:100200000ECC002902D000F012F8F9E71A491B4A77
:10021000002000E001C19142FCD1194988471949E9
:1002200088471949884700BEFDE701C901C29A42C3
:10023000FBD370470C570010C00000206C02002058
:10024000B85800100000042000000420B858001026
:1002500000100420001004200000000070470B482C
:1002600003F016F80047EFF30580C0B270470000B6
:1002700008ED00E0000000D0700200203C060020E5
:100280008D1800105904001049180010575600002E
:1002900006005250ABB36053DC55001006005250BC
:1002A000861C0302EC550010060052505422A29DF9
:1002B000F855001005005250DE65F468B85800107B
:1002C000F8B5C04606480749091A8B10C90FC91866
:1002D00010B5491003D0044B002B00D0984710BD37
:1002E0006C0200206C02002000000000054B10B5DD
:1002F000002B03D00449054800E000BFFFF7E2FFF0
:1003000010BDC04600000000F8030020084800109F
:10031000F0B5CE4600B58EB006000D0091461F0028
:100320001022002106A803F061FF80235B020693E0
:10033000F8235B0207938023DB020893C0231B038F
:100340000893102206A902A803F056FF4A46193264
:10035000039B3A490B404946C9010B43120313431F
:100360000393102202A90AA803F046FF344B9E42D1
:1003700060D007242100380000F076F9781C2100B5
:1003800000F072F92100149800F06EF90D9B2D4ACF
:1003900013407A011343802424051C430D942A4BF7
:1003A0001C40149B9B021C430D940B9B274A13403B
:1003B000159A120613430B93169803F06FFE84B23E
:1003C000002C39D0200003F041FE011C169803F0E8
:1003D00014FE8721C90503F030FE03F05FFEC0B2B2
:1003E0000002240420430A900C9A194B1A408023DF
:1003F0009B0213430C93174A13408022520213436B
:100400000C930124009402233A002900300004F0E8
:10041000FFF800940123149A2900300004F0F8F842
:100420000AAB4A462900300004F02AF90EB080BC1D
:10043000B946F0BD06249DE70020D1E77F00FEFF0E
:10044000000020501FFCFFE3FF83FFFFFFFFFFE0E2
:10045000FFFFF5C1FFFF0AFE70B588B007AB06AA23
:1004600005A9324800F0A8F8002803D130482F49E8
:1004700001F088FA079A0699059800F061F82D4D69
:100480000121280004F08AF804002B49280004F018
:10049000A3F80600002000F0FFF8D0231B0601227D
:1004A0005A62264B029313230193023B00930333BA
:1004B000320021002800FFF72BFF1E4B5A68210055
:1004C000103101238B401342F7D11A4A231D9B00A0
:1004D000FA2189009950116801252B00A340D843C7
:1004E00099430B431360D0231B065D61114B5A687F
:1004F0002100083101238B401342F7D18A000D49B6
:1005000052580C4A52681342FBD10A4B220008325F
:100510009200D258D0221206012191611A6802403D
:100520001A60FA20800000F009FEC6E7A0860100EC
:1005300008480010000020503C48001000002041F6
:10054000F0B583B004000D00160000F009F9002892
:1005500001D003B0F0BD154F00973B0001220121EF
:10056000053001F027FA00962B00220001211048E7
:1005700001F028FD31006943200002F0DDFE040097
:100580000C4B009300220221042001F013FA009486
:10059000230000220121052001F00CFA00973B0006
:1005A00002220021062001F005FAD2E7006CDC02ED
:1005B00000800240001BB700F0B5DE4657464E46AD
:1005C0004546E0B583B080468B46009201930420F7
:1005D00001F0F2FAFA21890002F0AEFE8246A02371
:1005E0005B0099462CE0013C002C20D025007D4387
:1005F0002900300002F0A0FE4045F4D1290030006F
:1006000002F09AFE0029EED173019B1B9B009B19FF
:10061000DB005A461360009B1F60019B1C60012099
:1006200003B0F0BCBB46B246A946A046F0BD013FB0
:10063000002F01D03C00D7E701235B429C46E144F8
:100640004B460F2B09D956464B465E43044BF218D6
:10065000044B9A42F0D80727EAE70020E0E7C046BB
:1006600080E5F9FF804F120010B58300084A9446D8
:1006700063441A684024624080341440802252014E
:1006800013431C60C000034B9C466044416010BD96
:1006900004C001400040014010B501238340D02236
:1006A0001206936293610521FFF7DEFF10BD000083
:1006B000EFF3108072B6034B1B68002BFBD0BFF327
:1006C0005F8F70472C0100D0BFF35F8F024B002279
:1006D0001A6080F3108870472C0100D0F8B506002E
:1006E0000C001500FFF7E4FFE308F718F15C0722A0
:1006F0002240012393400B4205D1DBB20B433B70F8
:10070000FFF7E2FFF8BD2100280001F03BF9F0B54A
:1007100083B00600019114001F00FFF7C9FF00E03D
:100720000134BC420CD8E308F518F35C07212140E2
:1007300001228A401A42F3D1D2B21A432A7001E050
:1007400001246442FFF7C0FF002C02DB200003B04D
:10075000F0BD019B002BF9D0089801F013F90000BF
:10076000034B1B6802201840431E9841C0B27047DB
:1007700000C00640002307E0054A9A189200BFF324
:100780005F8F0021116001331F2BF5D97047C046E0
:1007900040000034054A1078431CDBB21370172B5D
:1007A00002D9130010221A707047C046B001002011
:1007B00070B505000C00080000F00EFD200000F0F0
:1007C000F3FD0849200000F033FDFFF7E3FF064B7F
:1007D0009C466044800068602C75044BA400E55082
:1007E00070BDC046E50A001040000034100400202F
:1007F0000A4B1A68EFF3108172B61368002BFCD015
:10080000BFF35F8F054B1B68BFF35F8F00221A6039
:1008100081F3108840BF002000217047240600208B
:1008200010B5002920D003681B7B99421CD883682F
:10083000154CA446614409015B181C685968002ADC
:1008400018D003681B7B9A4214D883680E488446EC
:10085000624412019B181A685B6801208B4201D820
:100860000ED00020C0B210BD084B094A09483B21F8
:1008700000F0EEFF054B064A06483B2100F0E8FF7A
:10088000A242EFD8EDE7C046FFFFFF0FC4480010BB
:10089000484B00108C48001010B500291DD0037B78
:1008A00099421AD804684B005B18033BE4180029EE
:1008B00019D0002A1DD0914221D0002A25D0037BD7
:1008C0009A4222D8006853009B18033BC3189970C2
:1008D000217800291FD1227010BD104B104A1148F9
:1008E000692100F0B5FF104B104A0E48703100F03E
:1008F000AFFF0F4B0D4A0B48712100F0A9FF0D4BC4
:100900000A4A0848722100F0A3FF044B044A054834
:10091000692100F09DFF59702270DDE7F848001052
:10092000B44B00101449001060490010904B0010A7
:100930006C4900107849001070B506000D001400D5
:10094000002914D0002A14D04368806898470028F2
:1009500006D0220029003000FFF79EFF280007E0A4
:100960002A0021003000FFF797FF200000E0100070
:1009700070BD0800FCE70000F0B583B005000092F0
:1009800001930AAB1C780BAB1F78002C26D00368B0
:100990005A7B944207D10123002B19D1002C3AD164
:1009A000200003B0F0BD002C0CD01A7B944209D873
:1009B0001A6863001B19033BD3189B78002BEBD0FC
:1009C0000123E9E73C4B3D4A3D48692100F040FFE7
:1009D0003C4B3D4A3D48652100F03AFF03689C7B53
:1009E000002CDBD011D01A7B94420ED81A6861001B
:1009F00009190339521851789973002900D1D97314
:100A00000023937053701370C8E72B4B2B4A2C486C
:100A1000692100F01DFF002C37D02B681B7B9C4206
:100A200033D8AB682A4AA21812019B18009A1A60A0
:100A3000019A5A60089A9A60099ADA602E68002C26
:100A400029D02ED0337B9C422BD8336862001219F8
:100A5000033A9B1800229A705A701A70717B220018
:100A60003000FFF769FF7073844299D1287D009AA6
:100A7000019B00F025FC061E01D0002F17D00C9B17
:100A8000002B00D18CE71E708AE7124B124A0F48E8
:100A90003B2100F0DDFE114B114A0948A62100F070
:100AA000D7FE054B054A0648692100F0D1FE2868AB
:100AB000210000F04BFEE2E7F8480010B44B0010B4
:100AC0001449001090490010C04B00108C480010D1
:100AD000FFFFFF0FC4480010484B0010884800106B
:100AE000A44B0010F0B5DE4657464E464546E0B5ED
:100AF0008BB0099000230893B24B8200D55833E0A5
:100B0000B14BB24AB2483F2100F0A2FEB14BB24A0B
:100B1000B2483B2100F09CFEB14BB24AAF488C2159
:100B200000F096FEB04BAF4AAC48902100F090FE2A
:100B3000A84BAE4AA948402100F08AFE43461A68F5
:100B40005B68099800F0BCFB00239B469A466B68E3
:100B5000BFF35F8F00221A6089F310885346002B81
:100B600053D1002800D126E100F042FB02000B1E09
:100B7000C6DB00200021069007916868EFF310891A
:100B800072B601680029FCD0BFF35F8F2868447BF0
:100B9000002C35D0BAD0017B8C42B7D8AE689449CE
:100BA00061180901B046884441460E684F68B61A7C
:100BB0009F41002FC2DC01D1002EBFD1002100F0E7
:100BC000BBFDA042A8D143461A685B680692079312
:100BD00043469B689A464346DB689B465346002B38
:100BE000A0D0002CA4D02B681B7B9C42A0D8EA6824
:100BF000631ED35C08931B02184328610020A6E7FC
:100C000000239B469A460020A1E7089B1B02234332
:100C1000984659461800D04706000F006A68EFF35F
:100C2000108972B6136859424B41D9B2002BF9D1E1
:100C3000BFF35F8F002F26DB002F52DD2B69002BC7
:100C400053D0434572D100F0D3FA02000B1E73DB80
:100C50000100180092197B41984202D804D19142B8
:100C600002D901225242D317002B6BDB00210491E1
:100C70000131039102945946019151460091280097
:100C8000FFF77AFE49E02B69002BD5D043451CD1F4
:100C9000069A079B10001900921BBB41994202D88B
:100CA00004D1904202D901225242D317002B12DB09
:100CB000002104910131039102945946019151465A
:100CC00000912800FFF758FE27E04A4B454A434869
:100CD0009F2100F0BDFD3C4B3C4A3D483F2100F0C8
:100CE000B7FD002F01D1002EA8D12A68002C44D0D6
:100CF000537B9C422CD1012100293ED1D37B002B78
:100D000041D1D473002C50D02B681B7B9C424CD813
:100D1000EA68013C135D0133135500232B616A68B7
:100D2000BFF35F8F136089F310881DE7314B2D4AA5
:100D30002A48A22100F08CFD234B244A24483F215D
:100D400000F086FD204B214A21483F2100F080FD24
:100D5000002C0CD0137B9C4209D8106863001B192F
:100D6000033BC3189B78002BC6D00121C4E7224B5C
:100D7000224A2348692100F06BFD224B224A204879
:100D8000F72100F065FD002B09D0117B8B4206D8BE
:100D900010685900CB18033BC3185C70B1E7164BC1
:100DA000164A1748692100F053FD0A4B0F4A0B48B9
:100DB000402100F04DFD0BB0F0BCBB46B246A94649
:100DC000A046F0BD10040020B8490010144B0010DC
:100DD000D4490010C4480010484B00108C48001043
:100DE0001C4A00102C4B0010344A00106C4B0010B1
:100DF000FFFFFF0F404A0010F8480010B44B0010EE
:100E0000144900107C4A0010804B001010B50A4BAA
:100E10005B68002B04D009480A2100F0E5FA10BDF8
:100E2000054C074A20682300102100F0A9FB03218C
:100E30002000FFF7BDFCEEE7B401002024060020EF
:100E40002108001010B5064B5B68002B01D0044848
:100E500010BD044B044A05485C2100F0F9FCC04673
:100E6000B4010020A04A0010544B00108C48001020
:100E7000F0B5DE4657464E464546E0B58BB0804657
:100E800016001F00149B9A46159B994616AB1B78BB
:100E90009B461F2302AA9446634400221A7036E040
:100EA000002809D042461268127B904204D842467C
:100EB000D168421E8A5C4CE0454B464A4648402178
:100EC00000F0C6FC0798002B79D05B46002B76D04B
:100ED0004946D04704000D0003000B4300D175E0E4
:100EE00000294ADB00F084F902000B1E59DB0100E7
:100EF000180012196B41984202D804D1914202D9CC
:100F000001225242D317002B51DB16001F0043462B
:100F10005A68EFF3108472B6136859424B41D9B244
:100F20000791002BF8D1BFF35F8F1F3302AA9446BD
:100F3000634404930023039302934B460193534667
:100F4000009332003B004046FFF716FD031EA7D179
:100F5000020041464968BFF35F8F00250D6084F3AE
:100F60001088002B29D01F2302A98C4663441B78CC
:100F7000002BA7D112021043A5E730003900361B21
:100F8000AF41B94202D804D1B04202D9012676421B
:100F9000F717002FBBDA114B114A12483F2100F01E
:100FA00057FC0E4B0E4A0F483F2100F051FC0B4BF3
:100FB0000B4A0C483F2100F04BFC012040420BB093
:100FC000F0BCBB46B246A946A046F0BD0798F6E77E
:100FD000C44800106C4B00108C480010B849001039
:100FE000144B0010D4490010F0B587B006000F0074
:100FF000FFF739F900281FD106246442E517A41928
:101000007D41BD4202D803D1B44201D9002400255C
:10101000002D14DB0494059500F0EAF802000B1E85
:1010200013DBA41A9D41002D17DC14D030003900C9
:1010300000F0EAF807B0F0BD234800F0A3FC234B12
:10104000234A24483F2100F003FC204B204A21483A
:101050003F2100F0FDFB002CE8D0FFF7F3FE00235A
:10106000029301931C4B0093049A059BFFF700FF2A
:10107000002818DADAE7002300E00023002BD5D19E
:10108000164B1A68EFF3108172B61368002BFCD070
:10109000BFF35F8F114B1B68BFF35F8F00221A6095
:1010A00081F3108820BF0499059A0D4B5B6A9A4220
:1010B000E3D80B48806A884203D29A42DBD00123EE
:1010C000DCE70123DAE7C046C44A0010B849001043
:1010D000144B0010D4490010F10700102406002022
:1010E00000400540F8B504000D0000F081F8020052
:1010F0000B1E10DB20002900801859418B4202D8BA
:1011000004D1824202D901204042C117002908DBE4
:10111000FFF76AFFF8BD064B064A07483F2100F07B
:1011200097FB034B034A04483F2100F091FBC04664
:10113000B8490010144B0010D449001010B5FA2221
:1011400092000023002102F03BFFFFF7CBFF10BD10
:1011500070B5EFF305833F2018401038EFF3108C83
:1011600072B6184B1B68002BFBD0BFF35F8F0123B7
:1011700019008140144A5163144A12781400C44083
:10118000234213D0104B5C6A114B8500EB589C42F4
:1011900005D3104BEB580D4C8A43227007E00A4AE6
:1011A000031D9B0099589950002300E00023BFF3D2
:1011B0005F8F044A002111608CF31088002B00D04F
:1011C000984770BD280100D0004005403B06002034
:1011D000280600207803002010B50100024A034BC6
:1011E0001800FFF77BFA10BDD84B0010380600201E
:1011F000044B5B6A034A906A1900536A9942F9D119
:101200007047C04600400540084B5B6A01E0074B51
:101210005B6A8B42FBD301E0044B5B6A8B4203D1D8
:10122000024B9B6A8342F7D37047C046004005409B
:1012300070B504000E00EFF3108572B61B4B1B68EF
:10124000002BFBD0BFF35F8F002E1CD0200000F0DE
:101250002BFD174B83420BD01900200000F02CFD12
:101260000121200000F018FD0123A340114A136062
:10127000114BA400E650BFF35F8F0C4B00221A60A5
:1012800085F3108870BD0C4BA2000021D1500122C3
:10129000A2400A490B7893430B700549200000F0E7
:1012A00035FD0021200000F0F7FCE4E7280100D024
:1012B0005111001038600540780300203B060020E3
:1012C000F0B5DE4600B584B00400150001921E00A2
:1012D0000293FFF78DFF03958E4202D84ED18542CF
:1012E0004CD9EFF3108B72B6274B1B68002BFBD049
:1012F000BFF35F8F254A17780125A540EBB23B432A
:101300001370234B5D63221D92000199D150214A35
:10131000A100029888501B6A2B4212D11C4B1B6CF7
:101320002B4208D00020BFF35F8F174B00221A60BA
:101330008BF3108823E0184B184A1948C12100F09C
:1013400087FAFFF755FF8E4214D802D1039B8342E0
:1013500010D80E4B1B78BB420ED00D4B1D625D6347
:101360001F222240012393400E4A1360074B1F7037
:101370000120D8E70020D6E70120D4E7012004B0FF
:1013800080BCBB46F0BDC046280100D03B06002013
:101390000040054028060020FC4B0010644C001063
:1013A000204C001080E200E0EFF3108C72B60B4B83
:1013B0001B68002BFBD0BFF35F8F01238340084ADB
:1013C000136208490A789A430A70BFF35F8F034B90
:1013D00000221A608CF310887047C046280100D0A4
:1013E000004005403B060020024B9C4661448900BA
:1013F000016070474000003410B50400FFF7CAF9DF
:1014000001002000FFF7F0FFFF232371BFF35F8F80
:1014100010BD10B50400FFF7BDF901002000FFF773
:10142000E3FFFF23237100236371BFF35F8F10BDC0
:1014300010B500291DD0037B99421AD804684B00CF
:101440005B18033BE418002919D0002A1DD09142F3
:1014500021D0002A25D0037B9A4222D8006853006D
:101460009B18033BC3189970217800291FD1227063
:1014700010BD104B104A1148692100F0E9F9104BDA
:10148000104A0E48703100F0E3F90F4B0D4A0B483B
:10149000712100F0DDF90D4B0A4A0848722100F075
:1014A000D7F9044B044A0548692100F0D1F9597075
:1014B0002270DDE7F84800100C4E001014490010AF
:1014C00060490010F84D00106C4900107849001078
:1014D00070B506000D001400002914D0002A14D0A5
:1014E000436880689847002806D022002900300011
:1014F000FFF79EFF280007E02A0021003000FFF7D9
:1015000097FF200000E0100070BD0800FCE700001D
:1015100010B50023437301338373037BC37301232B
:10152000027B9A4213D9002B0BD0027B934208D83E
:1015300001685A00D218033A8A180133DBB253709B
:10154000EEE70C4B0C4A0D48692100F081F9002AA6
:1015500009D0924207D8016853009B18033BCB186F
:1015600000225A7010BD034B034A0448692100F061
:101570006FF9C046F84800100C4E001014490010D6
:1015800010B5017342608360FFF7C2FF10BD000019
:1015900070B50400081E00D170BD002931D0237B36
:1015A00099422ED822684B005B18033BD3185A7817
:1015B000002AF1D02BD0237B9A4228D821685300EF
:1015C0009B18033BCB185D7800215970002824D06C
:1015D000237B984221D8216843001B18033BCB187A
:1015E0000021597001002000FFF772FF060029005A
:1015F0002000FFF7CDFF020031002000FFF768FF59
:10160000CAE7094B094A0A48692100F021F9064B4B
:10161000064A0748692100F01BF9034B034A0448B6
:10162000692100F015F9C046F84800100C4E001072
:101630001449001070B505000C001600002927D0D1
:101640002CD0037B994229D8036849000919033932
:101650005B185A78002A27D19A78002A2AD119785B
:10166000FFF796FF0300002E03D0EA7B002A27D164
:10167000EC73002B36D1002C47D02B7B9C4244D8F6
:101680002A6863001B19033BD31800225A7070BDEF
:10169000214B224A2248382100F0DAF8214B224A15
:1016A0002248692100F0D4F8214B1C4A1C483A21F9
:1016B00000F0CEF81F4B194A19483B2100F0C8F83A
:1016C000002A09D0297B8A4206D82E6851008A1840
:1016D000033AB2185470CBE7124B134A13486921EE
:1016E00000F0B6F8002B0AD02A7B934207D82A686C
:1016F00043001B18033BD31800229A70BBE7094B29
:10170000094A0A48692100F0A3F8064B064A07482F
:10171000692100F09DF8C046184D0010E44D0010FE
:10172000204D0010F84800100C4E00101449001015
:10173000584D0010804D001070B504000A00457B24
:101740002900FFF777FF6073280070BD70B50400B3
:10175000002966D0437B8B420ED0002911D0037B39
:1017600099420ED805684B005B18033BED18AB7827
:10177000002B0CD1002055E00121FFF7DDFF0120F7
:1017800050E0294B294A2A48692100F061F8002BD2
:101790001FD0027B93421CD800685A00D318033B29
:1017A000C218C35C8B421AD0002B1BD0227B934201
:1017B00018D820685A00D318033BC01843788B42CE
:1017C00016D0002BF0D11B4B1B4A1C48672100F0A0
:1017D0003FF8154B154A1648692100F039F86B7827
:1017E000137007E0104B114A1148692100F030F8DE
:1017F0006B7843700023AB706B7001222000FFF701
:1018000019FF0200617B814205D02000FFF760FED6
:101810006073012006E00A4B074A08486D2100F07A
:1018200017F8002070BDC046F84800100C4E00109C
:1018300014490010A44D0010CC4D0010204D001094
:10184000AC4D001000BEFDE710B5FFF7FBFF000038
:1018500030B583B00D001900002A0DD0084B002AC6
:101860000CD0084C019200932B000200200002F0E3
:10187000F1FD0120FFF7E6FF034BF0E7024AF0E736
:10188000184E0010284E0010244E001070B52B4B3F
:101890002B4A1A602B4B2C4A1A602C4B9A682A4B05
:1018A0009343FAD12A4C01E008CC9847294B9C423B
:1018B000FAD300F001F9234B274A1A60234B9B68A7
:1018C000DB43DB01FAD1254B40229A675A671A673E
:1018D000DA66234C09E0234B234A24488321FFF78F
:1018E000B7FF2000FFF788FD0834214B9C4209D246
:1018F0002368002BF5D0012BEDD12000FFF789FDE7
:101900000834F2E71B4DA9681B4CC022200002F0EE
:1019100073FCAC60FEF7A7FC002800D000BEFEF709
:1019200029FF00F041FBFFF771FA144C01E008CCED
:101930009847134B9C42FAD370BDC04600E000406C
:10194000BFCDFBFE00F00040FE7F3C0000C0004029
:101950005802002068020020FFFFFF0100F0014054
:1019600050020020584E0010D04E0010784E00104B
:101970005802002000ED00E0000000206802002076
:101980006C0200200FB400B583B0084802F030FDAF
:10199000049B002B07D005A90191180002F038FD27
:1019A000034802F025FD0120FFF74CFFBC4E00105C
:1019B000CC4E0010F8B5DE4657464E464546E0B5DB
:1019C00006000F0015000A9A93424ED31A0E924653
:1019D0001B0298460A9A00234046514601F0EEFC4D
:1019E00081467400A419A4002E4B9C46644463688D
:1019F000834200D26060331FDBB29B46012B3AD991
:101A0000C0239B012343802212011A60264BB2009F
:101A1000D158002905D0586901F08EFC01300138F9
:101A2000FDD16D0123685D40E0222A4080235B01E7
:101A300023431A605A46012A28D980239B01234355
:101A4000802212011A604B4663604A4600234046DA
:101A5000514601F0B3FC144BB60098510120F0BC84
:101A6000BB46B246A946A046F8BD104B104A1148E5
:101A70002D21FFF7EDFE012FC2D1C0239B0123438F
:101A800003221A60A368DB07FCD5CAE72168794006
:101A900003220A401A60A3680125BD401D42FAD006
:101AA000CBE7C0460080004088030020E04E0010D5
:101AB000384F0010F44E001030B583B00C2000F009
:101AC0000DFBFEF74DFE00280DD0002304E02E4A4A
:101AD00099002E4888500133092BF8D92A4B2C4AFB
:101AE0005A6203B030BD2B4B00229A6700F0FEFA19
:101AF000294B01221A60274B5B6C012BFBD1274B32
:101B000003221A60234B9B6B012BFBD10224009410
:101B10000533234A0121234800F054FA0094052399
:101B2000214A0121214800F04DFA214B0093002267
:101B300002210420FFF73EFF1E4D00952B000022DE
:101B400001210520FFF736FF104C009423000022EE
:101B500000210720FFF72EFF009423000022002120
:101B60000820FFF727FF0A4B0093230000220021E3
:101B70000920FFF71FFF00952B00002200210620FF
:101B8000FFF718FFADE7C04688030020006CDC02B9
:101B90001BB70000008000403CB0004030B0004067
:101BA000002F68590080024000389C1C00C0024091
:101BB000001BB70040597307014B8000C0587047A5
:101BC00088030020074B9B68103080001950BFF33A
:101BD0005F8FBFF35F8F044B0021196082F3108881
:101BE0007047C04600ED00E0240100D010B5091A8E
:101BF00004394B08090B05D15B055B0D04481843FC
:101C000080B210BD034B044A04488B21FFF720FE2D
:101C100000E0FFFF484F001054510010584F0010D3
:101C200010B5091A04394A08090B08D14905490DAC
:101C3000064B0B430380064B1343438010BD054BFB
:101C4000054A06489321FFF703FEC04600F0FFFF58
:101C500000F8FFFF484F001028510010584F0010A7
:101C600001238340034A10681840431E9841C0B2C4
:101C70007047C04600E100E0002904D0034B186023
:101C8000034B18607047034B1860FBE780E200E0ED
:101C900000E100E080E100E010B50123834018007E
:101CA000FFF7EAFF10BD0000024B9B681030800078
:101CB000C058704700ED00E070B504000D00EFF370
:101CC000108672B60C4B1B68002BFBD0BFF35F8FE6
:101CD0002000FFF7E9FF094B984201D0A84205D147
:101CE000320029002000FFF76DFF70BD044B054A4C
:101CF00005486E21FFF7ACFD240100D0CD01001096
:101D0000984F001070510010584F0010F0B5CE469B
:101D1000474680B583B006000D00EFF3108872B619
:101D2000574B1B68002BFBD0BFF35F8F554B9A6856
:101D300034001034A300D758534B9F4207D0AF4212
:101D400000D19BE00197514BFB1A2F2B09D942463A
:101D500039003000FFF736FF03B0C0BCB946B046CB
:101D6000F0BD3000FFF77CFF814600213000FFF717
:101D700093FFBFF35F8FFEF776FA002801D084420D
:101D80001AD10123019C9C43404A414B2100891AEE
:101D900049414B431B0D5BB29C460021A368AB42FB
:101DA00012D00622A256002A0DDB53009B189B007E
:101DB000364A2100D418F1E7364B374A1E213748FE
:101DC000FF31FFF745FD2100AB4250D10625655795
:101DD000002D37DB2D4B6A00521992009B189A6830
:101DE000A260DA79E2719B795BB2A371002B10DA01
:101DF000BD200002A080254B6A00521992009B185A
:101E0000274A11789971157049463000FFF744FF51
:101E10009DE7201D6B005B199B001C4A9B18191D38
:101E20009B88DA0A1C2A07D15B055B1502335B002D
:101E3000C918FFF7DBFEDDE71A4B1B4A174899214B
:101E4000FFF706FD00280DD1002909D0FF238B7173
:101E5000164B8B80124B1A78A27162461A70D3E728
:101E6000094FF7E71249201DFFF7DAFECCE7114BC7
:101E7000094AA92109484900FFF7EAFC024F66E731
:101E8000240100D000ED00E0CD010010DC010020B5
:101E9000AAAA0000AC50001040510010584F00108A
:101EA0003A060020945000106051001000BDFFFF62
:101EB00016020020D050001070B504000126064321
:101EC0002D4BF31A2F2B28D8FEF7CDF900282BD055
:101ED000EFF3108C72B6294B1B68002BFBD0BFF3BD
:101EE0005F8F254A264D2100891A49414D432D0D0A
:101EF0006DB2244B9B6880001B58B3421BD000215D
:101F0000032932D81C4B4A00521892009B189B7927
:101F10005BB2AB421FD00131F2E71B4B1B4A782169
:101F20001B48FF31FFF794FC1A4B184ABD21184893
:101F30004900FFF78DFC134B9B68174A1A50174B4B
:101F40001A78A2711D70BFF35F8F0C4B00221A60CC
:101F50008CF3108870BD084B4A0050188000181888
:101F6000FF2686710E4A8280E9E70E4B074A8C21D4
:101F70000748FF31FFF76CFCDC010020240100D092
:101F8000AAAA000000ED00E0D85000100C5100108B
:101F9000584F001000510010CD0100103A060020EB
:101FA00000BDFFFFA44D00100022044B02E00449D5
:101FB00002C30132072AFAD97047C04600E400E0A4
:101FC00080808080F0B5CE4600B504000E009146BA
:101FD0001F000C2001F0B0F9050043011B1A990104
:101FE000C91AC90009188901484601F0A5F902007B
:101FF000103A98235B009A4233D87B1E062B36D8C2
:10200000069B013B062B32D8069B9F4235D34B469D
:102010001B09AB4237D33F04069B1D032F432368A4
:10202000002B36DB234B9C4241D080235B01224AAC
:102030001360224A1360224A926819009143FAD130
:102040002660A060221DC0239B01134321221A6039
:102050002268002AFCDAE76008221A6080BCB946D0
:10206000F0BD184B184A19481621FFF7F1FB184B21
:10207000154A16481921FFF7EBFB164B124A134875
:102080001F21FFF7E5FB144B0F4A10482221FFF7F1
:10209000DFFB22683F231340B342C3D1A3681B0573
:1020A0001B0D8342BED1E368002FBBD1D6E780234E
:1020B0009B01BCE700C0024000E0004000F000408F
:1020C00000C000408C51001068520010A851001050
:1020D000E8510010345200104C52001080239B0035
:1020E0000343014AD362704700800540064BAA2291
:1020F00012011A602F22DA60044B054A1A60024B63
:102100005B68002BFBDA7047004002400060024031
:1021100000B0FA00704710B5002802D00B6849687B
:10212000984710BD0100002007E083001B185B00EA
:10213000501C08601078C01830380A681378303B9B
:10214000DBB2092BF1D97047F0B5DE4657464E4653
:102150004546E0B583B093461F000C9B9A460D9C04
:102160000E9B99460F9B9B0703D0B8460F000600B5
:1021700022E00192A34688464E46B9460700B44283
:1021800007D2551C4B4641462020B84701342A004F
:10219000F5E73D004F465C46019B9B46B1464646EF
:1021A000B84637002E0007E0013C551C5346185D29
:1021B00043463900B0472A00002CF5D135003E00D7
:1021C00047460F9B9B0707D4100003B0F0BCBB46EB
:1021D000B246A946A046F0BDB0464E46B9462F00CD
:1021E0005D46531BB342EFD2541C4B464146202060
:1021F000B8472200F5E7F0B5CE46474680B585B032
:10220000944698460C9D0D9C0EAB1B789946109AEF
:10221000119B129EB7071CD4002B0CD0F7070AD5D0
:102220004F46002F02D10C37374204D0013B02E069
:1022300030272F550134944201D21F2CF8D9F707CB
:1022400007D59C4205D21F2C03D830272F550134C7
:10225000F5E7F70615D5770505D4002C03D0944291
:1022600024D09C4222D00F9A102A2BD00F9A102AE9
:1022700030D00F9A022A35D01F2C02D830222A558E
:1022800001341F2C05D84A46002A31D02D222A5568
:102290000134039602930194009543466246FFF78A
:1022A00053FF05B0C0BCB946B046F0BD621E012C5C
:1022B00006D00F9F102F01D01400D4E7023CD2E7C4
:1022C0001400D0E7B206D1D41F2CCFD878222A55DB
:1022D0000134D1E7B206CCD51F2CCAD858222A55D2
:1022E0000134C9E71F2CC7D860322A550134C3E72F
:1022F000720703D52B222A550134CAE73207C8D505
:1023000020222A550134C4E7F0B5DE4657464E4632
:102310004546E0B593B081468A46089209931CABC6
:1023200010CB1B789B461E9D219B9846002C03D109
:10233000102342469A4390468023DB0046461E40C7
:1023400042461A4212D0002C22D000260EE0303134
:10235000CBB2771C0AAA93552900200000F0ECFFAD
:10236000AC4216D31F2F14D83E00040029002000D1
:1023700000F0E2FFC9B20929E9D943469B0605D519
:1023800041235B18DBB20A3BDBB2E2E76123F8E7EB
:10239000270043460693209B05931F9B04930395B8
:1023A0005B46029301970AAB0093099B089A51463A
:1023B0004846FFF720FF13B0F0BCBB46B246A94623
:1023C000A046F0BDF0B5DE4657464E464546E0B560
:1023D00095B0089009910A920B931E9E1F9C20AB0A
:1023E0001B789B46229B9946239D269B9A46330049
:1023F000234303D1103352469A4392468023DB0095
:1024000057461F4052461A4219D0330023432DD05D
:10241000002714E03032D3B27A1C90460CAAD35570
:102420004A462B003000210000F0C8FFA5421FD80B
:1024300019D043461F2B1BD8474606000C004A46BE
:102440002B003000210000F0B9FFD2B2092AE1D9F7
:1024500053469B0605D541239B18DBB20A3BDBB2F2
:10246000DAE76123F8E7B145E3D901E000239846B4
:1024700053460693259B0593249B04934B46039355
:102480005B460293434601930CAB00930B9B0A9A65
:1024900009990898FFF7AFFE15B0F0BCBB46B246ED
:1024A000A946A046F0BD0000F0B5DE4657464E46B0
:1024B0004546E0B591B083468A460C9298461A9CF0
:1024C00008941B9D099522002B002000290001F093
:1024D00004FA002800D0E5E001225242D74B200048
:1024E000290001F0F5F9002800D0DBE0012252427A
:1024F000D34B2000290001F0D5F9002800D0D1E00D
:1025000000220023089E3000099D290001F0CAF92D
:10251000002800D0DDE0089A099B069207938023EB
:10252000DB001E9A1A400D921E9A1A4201D1062310
:102530001C930698079904000D000A000600024348
:1025400000D1D1E0080D4005400DBE4CA4466044CA
:102550000A03120BBC4B13431F0001F0D1F9BB4A15
:10256000BB4B01F05CF9BB4ABB4B01F031F90400F5
:102570000D000022B94B3000390001F020F9B84AB3
:10258000B84B01F04CF902000B002000290001F0CB
:102590001FF901F0CDF9814601F0B2F904000D00F8
:1025A000B14AB24B01F03BF90022B14B01F010F9F6
:1025B00001F0BEF90600AF4AAF4B2000290001F040
:1025C0002EF904000D00300001F09AF9AB4AAC4B33
:1025D00001F025F902000B002000290001F0EFF8BE
:1025E00004000D0002000B0001F019F90A900B9194
:1025F000A44BF31800261F0522002B002000290001
:1026000001F0E6F80E900F9122002B0000208021AF
:10261000C90501F0D4F804000D0000229A4B0A9875
:102620000B9901F0DEF80022984B01F0D1F802007E
:102630000B000A980B9901F0D4F80022944B01F09A
:10264000C7F802000B000A980B9901F0CAF80200C3
:102650000B002000290001F0BBF802000B000E98CF
:102660000F9901F0BEF80022774B01F0B1F832006B
:102670003B0001F0D4F806000F0004000D00069A9C
:10268000079B01F025F9002830D001235B429C46CE
:10269000E14400227D4B3000390001F0A2F8040033
:1026A0000D0023E01E9B04931D9B03931C9B029330
:1026B000089A099B0092019343460C9A514658464A
:1026C00000F0FCF811B0F0BCBB46B246A946A046EB
:1026D000F0BD0023002406930794069680231B0672
:1026E0009C46654407951AE7002399464B46633399
:1026F000C62B1ED804261E9B1B0526D52B00234364
:102700000FD0644A644B0698079901F0D9F8002865
:1027100079D00022614B0698079901F0C3F8002890
:1027200071D01C9B4B4506DD4A469B1A013B1C930E
:1027300003E00526DFE700231C938023DB001E9ABD
:102740001A431E920026002399461D9B9E4264D286
:102750009F1B02231E9A1A400A921E9A134202D00D
:10276000002E00D000274B46002B07D022002B0064
:102770000698079901F035F806900791002200238A
:102780000898099901F08EF8002848D1444B1E9A08
:102790001340049303971C9B0293069B079C009392
:1027A000019443460C9A5146584600F087F8002E93
:1027B00000D187E71E9B9B063DD54525441C43461B
:1027C000020051462800D8474A46D317D2185A402B
:1027D00005230593013E0496002303930A330293D5
:1027E0004B46DB0F01930092434622005146584668
:1027F000FFF78AFD0A9B002B00D163E702005F46CA
:102800000C9E1D9D54E01C9B002B9ED00D9B002B0D
:102810009BD01C9B013B1C9397E7002799E7069CE4
:10282000079D2200290080200006844661440B0099
:1028300006920793AAE76525C0E7C046FFFFEF7F32
:10284000FFFFEFFF01FCFFFF0000F03FFB799F500F
:102850001344D33FB3C8608B288AC63F0000F83FBB
:1028600061436F63A787D23F71A379094F930A40F1
:102870000000E03F1655B5BBB16B0240EF39FAFEE0
:10288000422EE63FFF03000000002C4000002440E1
:10289000000018402D431CEBE2361A3F80842E4185
:1028A000FFF7FFFF541C434651462020B847220043
:1028B000931BAB42F6D3100004E7C046F0B5DE46EA
:1028C00057464E464546E0B595B00690079193466B
:1028D0009946209F1E9A1F9B1000190000F0FDFFD3
:1028E000002831D101225242BF4B1E981F9900F09F
:1028F000D9FF002837D101225242BC4B1E981F99A4
:1029000000F0E6FF00283DD10022B94B1E981F9928
:1029100000F0DEFF002850D10022B64B1E981F9910
:1029200000F0C0FF002848D1002200231E981F9904
:1029300000F0B8FF002850D100239846229B5B0589
:1029400000D4B6E0002458E0229B0393219B02931D
:1029500003230193A84B00934B465A4607990698C8
:10296000FFF7F2FB0EE1229B0393219B02930423CA
:102970000193A24B00934B465A4607990698FFF7DE
:10298000E3FBFFE00423229A1A4022990B4210D065
:102990009B4B002A0FD00422229903912199029186
:1029A000019200934B465A4607990698FFF7CCFBD5
:1029B000E8E0944BEDE70322EEE7229B0493219B92
:1029C000039302971E9B1F9C009301944B465A460B
:1029D00007990698FFF768FDD4E01E9A1F9B002018
:1029E000002100F0ECFE1E901F9101239846A5E700
:1029F0000CAB30221A55013F01341F2C01D8092F8E
:102A0000F6D81E981F9900F093FF050000F078FF9C
:102A100002000B001E981F9900F0D1FE7A4BFA00BD
:102A20009B181A685B680A920B9300F0F8FE0890F6
:102A3000099100F0A1FF060000F05EFF02000B000C
:102A40000898099900F0BBFE0890099100226F4B8D
:102A500000F03EFF00282ED00136300000F04CFF81
:102A600002000B000A980B9900F022FF002801D009
:102A700001350026002F2CD1280000F041FF020074
:102A80000B001E981F9900F09AFE06000F0000220E
:102A90005E4B00F007FF002846D100225B4B300060
:102AA000390000F015FF00283ED1EB073CD5013579
:102AB0003AE0062746E70022544B0898099900F0AF
:102AC000F1FE0028D6D1002E01D0F307D2D5013671
:102AD000D0E7AA461F2C11D8013F0A21300000F090
:102AE0002BFC651C30310CAB19550A21300000F06D
:102AF00023FC092E0ED906002C00EBE755461F2CAF
:102B00000CD87B1E002F09D00CAA302111551F00B4
:102B10000134F4E72B0055461C00F0E71F2C03D8C6
:102B20000CAB2E221A5501341F2C10D80A21280074
:102B300000F0DAFB661C30310CAB19550A21280075
:102B400000F0D2FB051E01D03400EDE73400032372
:102B5000229A1340012B1CD01F2C06D84346002B71
:102B600032D00CAB2D221A550134229B0393219BAA
:102B7000029301940CAB00934B465A460799069872
:102B8000FFF7E2FA15B0F0BCBB46B246A946A04634
:102B9000F0BD219B002B13D04346002B02D10C33F8
:102BA00013420FD0219B013B2193190003E00CAB92
:102BB00030221A5501348C42CED21F2CF7D9CBE7E4
:102BC0002199F8E72199F6E7229B5B0704D50CAB26
:102BD0002B221A550134C8E7229B1B07C5D50CAB25
:102BE00020221A550134C0E7FFFFEFFFFFFFEF7F00
:102BF00065CDCD4165CDCDC180520010845200100D
:102C0000745200107C520010285400100000E03F65
:102C1000F0B5DE4657464E464546E0B593B082468F
:102C20008B4690461193002900D100E300275446BB
:102C3000119B1878002800D1FCE2252809D07D1CC2
:102C400043463A005946A047119B013311932F0088
:102C5000EEE7013311930025119A11780B00203B08
:102C6000D8B2102803D88300C248C3589F460B002F
:102C7000303BDBB2092B2CD92A292FD000230A9311
:102C8000119B1A782E2A39D000239946119A13786D
:102C9000683BD9B2122976D88B00B749CB589F46EA
:102CA00001231D4301321192D6E702231D43013255
:102CB0001192D1E704231D4301321192CCE708237E
:102CC0001D4301321192C7E710231D4301321192B7
:102CD000C2E711A8FFF726FA0A90D1E71C9B1A1D3C
:102CE0001C921B68002B04DB0A93119B0133119388
:102CF000C6E7022215435B420A93F6E78022D20020
:102D000015435A1C11925A781300303BDBB2092B41
:102D100004D92A2A07D000239946B7E711A8FFF75C
:102D200001FA8146B2E71C9B1A1D1C921B68002BFE
:102D300004DB9946119B01331193A7E70023F8E7C1
:102D400080235B002B43511C119152786C2A01D0D7
:102D50001D0018E0C0239B001D430131119112E0BA
:102D600080232B43511C11915278682A01D01D00F9
:102D700009E0C0231D430131119104E080235B0071
:102D80001D4301321192119B1878672816D8252807
:102D900026D30300253BDAB2422A21D89300774A92
:102DA000D3589F4680239B001D4301321192EAE7CE
:102DB00080235B001D4301321192E4E778280FD88D
:102DC00069280DD30200693AD2B2012393406C4ABC
:102DD00013420FD11A0600D503E25B0500D594E13A
:102DE0007D1C43463A005946A047119B013311937D
:102DF0002F001DE7782809D0622838D06F2838D0F6
:102E0000582838D010239D430A2600E01026582861
:102E100033D0692803D0642801D00C2295436A0579
:102E200001D50122954369282AD0642828D0AA0513
:102E300000D5A7E0EA0500D5C0E06A0600D4D2E0DC
:102E40001C9A111D1C911168FF220A4005950A9BCE
:102E500004934B460393029600230193009243464A
:102E60003A0059462000FFF74FFA070027E00226F4
:102E7000CDE70826CBE71026C9E720221543C8E78F
:102E8000AA0520D4EA0550D46A0666D51C9A111DFD
:102E90001C911168FF220A40D01711184140059576
:102EA0000A9B04934B4603930296D20F0192009122
:102EB00043463A0059462000FFF726FA0700119BC7
:102EC00001331193B4E61C9A073207218A4311009B
:102ED00008311C91116853689C46DB170C930D93C5
:102EE0000C9A0D9B100048400E90624653400F9381
:102EF0000E980F990C9A0D9B801A99410E900F9184
:102F000008950A9B07934B46069304960023059366
:102F10006346DA0F02920090019143463A00594607
:102F20002000FFF74FFA0700C9E71C9A111D1C91FA
:102F30001268D0171118414005950A9B04934B461F
:102F400003930296D20F0192009143463A005946EC
:102F50002000FFF7D9F90700B1E72A0605D51C9A2A
:102F6000111D1C910023D25E96E71C9A111D1C9125
:102F7000126891E78C520010D05200101C530010C0
:102F8000419000001C9A073207218A431100083142
:102F90001C9108950A9B07934B46069304960023C1
:102FA00005930293536812680092019343463A00D6
:102FB00059462000FFF706FA070080E71C9A111D0A
:102FC0001C9105950A9B04934B460393029600239C
:102FD00001931368009343463A0059462000FFF7D7
:102FE00093F907006BE72A0606D51C9A111D1C9160
:102FF00012681204120C29E71C9A111D1C91126808
:1030000024E746281AD01C9B0733072293431A0053
:1030100008321C9204950A9A03924A4602921A6850
:103020005B680092019343463A0059462000FFF73F
:1030300045FC0700119B01331193F9E520231D4343
:10304000E1E7672801D0472802D180231B011D43F7
:10305000452801D0472801D120231D431C9B07335D
:10306000072293431A0008321C9204950A9A03928D
:103070004A4602921A685B680092019343463A00FE
:1030800059462000FFF710FA0700119B01331193F6
:10309000CEE502231A002A4092462B421FD001257A
:1030A0001C9B1A1D1C927A1C9146187843463A00C4
:1030B0005946A0475346002B16D1119B013311935B
:1030C0004F46B5E5561C434659462020B8472B00CD
:1030D00032005D1C9C42F5D83C001700E0E701235C
:1030E0003A0027000A9CF4E74A46A1460A9C06E0FB
:1030F000571C434659462020C84735003A006E1CED
:10310000AC42F5D84C469146D7E71C9B1A1D1C9241
:103110001E684B46002B00D1013B310001E001311C
:1031200013000A78002A02D05A1E002BF7D1891BFF
:1031300010918023DB002A001A4092461D4203D0E2
:10314000494501D94B46109302231A002A400B929D
:103150002B4205D03A00574623004C46994620E0C2
:103160003A00109B5F46B346260006E0541C4346D7
:1031700039002020B0472B0022005D1C0A9999429B
:10318000F4D834005E46BB461095574623004C46A3
:10319000994606E01C000136551C43465946C8476F
:1031A0002A003078002804D0002FF4D0631E002CB1
:1031B000F0D117004C460B9B002B03D1119B013320
:1031C000119335E50A9F109B06E0561C434659466D
:1031D0002020A0472B0032005D1C9F42F5D817002D
:1031E000ECE721232B431C9A111D1C9112680593B7
:1031F000082304934B460393102302930023019367
:10320000009243463A0059462000FFF77DF8070038
:10321000119B013311930BE57D1C43463A0059463F
:103220002520A047119B013311932F0000E50B4B84
:103230009A46FBE4A246474502D343465A1E00E0A5
:103240003A00434659460020D047380013B0F0BC3E
:10325000BB46B246A946A046F0BDC04615210010A7
:1032600000B585B00290039101210448009313003A
:103270004A4202A9FFF7CCFC05B000BD172100109F
:1032800001480421014B184730020020B1320010E0
:1032900010B5010018231B8814221088984710BD10
:1032A00010B5010018231B8816221088984710BDFE
:1032B000F0B5C64600B507000E000025012398466C
:1032C00000E00135B5420AD2AC003C192068FFF796
:1032D000DFFF20600028F4D100239846F1E7404644
:1032E00080BCB846F0BD0000124A936F9B0815D20F
:1032F0009066D166002905D0FFE7FFE7FFE7516F31
:10330000106F704704B580210906C217514000288C
:1033100000D0C84301F060FA002104BDF0B5146E7E
:10332000556E576F166FFFF7E3FF146655665767C4
:103330001667F0BD000000D0114A936F9B0813D2AE
:1033400010665166002905D0FFE7FFE7FFE7516FE0
:10335000106F704704B5002801D00020C04301F071
:103360003BFA002104BDC046F0B5146E556E576F90
:10337000166FFFF7E5FF1466556657671667F0BDD1
:10338000000000D094464E4A926F9208624601D2E5
:1033900030E0C046F0B54A4EB56F6D08FCD3346ED0
:1033A000756E776F366F00F025F89446444A1466C0
:1033B0005566576716676246F0BDC0469446404A58
:1033C000926F9208624601D258E0C046F0B53C4E7A
:1033D000B56F6D08FCD3346E756E776F366F00F085
:1033E0004DF89446364A1466556657671667624626
:1033F000F0BDC046002B24DB11D000293EDA00B519
:10340000C943404200D1013100F038F8C94340427D
:1034100000D10131DB43524200D1013300BD002A0B
:10342000EBD1002801D1002905D00020C90FC90720
:1034300001D1C043410800B501F0C6F900220023C4
:1034400000BD00B500290ADBDB43524200D1013345
:1034500000F014F8C943404200D1013100BDC94316
:10346000404200D10131DB43524200D1013300F030
:1034700005F8DB43524200D1013300BD002923D1BE
:10348000002B18D1002A0CD0BC460D4F38667A6646
:1034900000210023FFE7FFE7FFE77A6F386F6746F9
:1034A0007047002801D00748010000B501F08CF9F1
:1034B0000022002300BD02000B0000200021704705
:1034C000000000D0FFFFFFFF002B00D0BFE0130C77
:1034D00028D1002AE7D080B4114F39667A66FFE719
:1034E000FFE730B4040C7B6F396F1B0423433B664A
:1034F0007A66FFE7FFE7FFE7C04684B27B6F3D6F68
:103500001B0423433B667A66FFE7FFE7C0460023C0
:103510002C042D0C7A6F386F00196941B0BC7047CC
:10352000000000D0F0B594460025140E01D112021F
:103530000835140F01D112010435940F01D1920006
:103540000235D40F01D152000135D40B0134254F7F
:103550007C66254C3C660E0C93B2FFE7FFE7FFE765
:103560003C6F6643360C7703BE467343DF0B5B0448
:10357000C01AB941130C7343DB18C91ACE0866434D
:10358000360CB64493B273431F0F1B01C01AB941E6
:10359000130C73431F0B1B05C01AB941860D8F0214
:1035A0003E436643360C092D24DB520A7243801ACF
:1035B0007703460A6643360C16235B1BDE40DF406A
:1035C000BF1964466643821B70460435063301000A
:1035D000D940A840C01900D30131A24206D200232D
:1035E000F0BD0000000000D0FFFFFFFF121B013004
:1035F000F3D3F1E709277F1BFE406446A2B2724372
:10360000801A00D20139220C7243130C1204821A60
:1036100099410B007046043513370100F940A8406A
:10362000801900D30131002B02D1A2420AD2F0BD91
:10363000013000D30131121BFAD2013BF8D1A24272
:1036400000D2F0BD013000D30131121BF7E7F0B515
:103650001C0C00D080E00CB400251C0A04D11B0215
:10366000160E3343120208351C0B04D11B01160F32
:103670003343120104359C0B04D19B00960F334356
:1036800092000235DC0B02D192185B4101351C001F
:10369000971864410134464F7C66464C3C660E0CDC
:1036A000FFE7FFE7FFE7C0463C6F6643360C770352
:1036B000BE4697B27743C01B00D20139C01B00D26F
:1036C00001399FB27743C91BC91B170C77437E048E
:1036D000FF0B801BB941CE086643360C0C2D33DB43
:1036E000B644120B1F053A431B0B97B27743C01B1E
:1036F00000D201399FB27743C91B170C77433E04B0
:103700003F0C801BB941860D8F023E43664329273B
:103710007F1BFE400C3D7746AF40BF1930BCA2B2C4
:10372000ABB272437343801A9941220C7243130C5B
:103730001204801A994102000B000137001BA941B5
:10374000F9D2781E0021F0BD0C277F1BFE40774682
:103750007F0BAF40FF19E0E700245D1C07D0144F3A
:103760007D663966FFE7FFE7FFE7FFE73C6F95B24D
:103770009EB265436643401BB141150C1E0C654368
:10378000664336042F0C3E432D04401BB141994241
:1037900004D202000B0020000021F0BD01D19042B4
:1037A000F7D3801A994101349942F2D3F6E7000029
:1037B000000000D0FFFFFFFF48404140484018B4E0
:1037C0001B4B5B68FC46019308BD04DF933A001075
:1037D00018B4174B1B68FC46019308BD00DF9D3AE7
:1037E00000109446134A926F920809D2624618B4A8
:1037F0000F4BDB68FC46019308BD0CDF553D001004
:103800000C4AF0B5146E556E576F166F6246FFF78F
:10381000EEFF084A1466556657671667F0BD18B480
:10382000034B9B68FC46019308BD08DFF93B001081
:1038300020040020000000D0FFB55040424050401E
:1038400059404B40594000E0FFB5154F4C00640D06
:1038500003D0BC4204D10C0314D80020090D090583
:103860005C00640D03D0BC4204D11C030AD80022C2
:103870001B0D1B0501264B4009D44B4003D58B4241
:1038800000D18242FFBD9942FCD19042FFBD0B4363
:10389000DB1803431343F5D0C9434918FFBD0000AB
:1038A000FF07000000B5FFF7CFFF804100BDC04615
:1038B00000B5FFF7C9FF01D9002000BD012000BD00
:1038C00000B5FFF7B9FF01D9002000BD012000BD00
:1038D00000B5FFF7B1FF804100BD012040054A005F
:1038E000121804D85A00121801D80020704701207D
:1038F00070470020704700000021002805D1704764
:10390000C1174840401AFAD0C90713B5064B1B68C7
:1039100098470CBC441CA2401005120B0349091B1C
:1039200009051943114310BD200500201F040000A4
:1039300010B54C00620D8023D218DB00D21A5B0553
:103940007E2A10DD9E3A13DACC1709034908194381
:103950005242D140640001341532202A05DAD040A9
:103960000843604310BD002010BD0846604310BDF1
:10397000C80FC018013810BD18B4044B5B6AFC4670
:10398000019308BD24DF053F001000002004002043
:1039900070B513231C78012C14D0012C14DC022CDC
:1039A00002DC1F4B1F4A93641F48FFF771FC1F4B3B
:1039B000186070BD1A491B4A9800815001331F2BB3
:1039C000F8D9EAE70023FAE71948FFF769FC050090
:1039D0001848FFF765FC023803789B007F2B19DD40
:1039E00010488022290000F007FC022CD7D1124B8E
:1039F0001A88B5231B029A4209D1104B1A88104B22
:103A00009A4204D10F4B1A880F4B9A42C7D000201C
:103A1000FDF7B8FF0D4B0E4A0E483221FDF718FF97
:103A2000593A0010200400204C33000020050020EB
:103A3000534400005346000054380000D8380000BA
:103A4000494600009C380000594600007854001098
:103A500020550010D854001007B56046002800D14A
:103A600000BE01880A0A0230DF2AFAD1C9B28208F0
:103A700004D3028840880004104300E00068024A32
:103A80005050039007BD0000200400200FB403BC79
:103A90000CBCF0B50124E407634000E0F0B50C0D68
:103AA000CF0F661E3605891B640503D3C943404208
:103AB00000D30131640D03D0661CF60A07D0E41B65
:103AC00000207F00791C89078912803C24031D0D8A
:103AD000DF0F6E1E36059B1B6D0503D3DB43524281
:103AE00000D301336D0D03D06E1CF60A07D0ED1B19
:103AF00000227F007B1C9B079B12803D2D032F1B08
:103B0000661B58D4A446202E46DA20371400BC4049
:103B10001D00BD40F24033412A4380185941CB0F6C
:103B200005D0C943C043002264425041514162461E
:103B30004D0D28D10D0D07D100281FD0241940416B
:103B40004941013A0D0DF9D0640006D3013000D38C
:103B50000131002C01D140084000013A0BD4941CE3
:103B6000E40A04D112051144DB071944F0BDD9075A
:103B7000204B194300E0D9070020F0BD0029DDD11A
:103B8000002CDBD1F0BD0132C6074008CD07284329
:103B90004908002EE1D0D9E73C2E29DA203E4037F3
:103BA0001400BC4000D00124F24014431A00BB4072
:103BB0001C43D317ACE7AC46202F08DA20360400AC
:103BC000B4400D00B540F84039412843A5E73C2FEB
:103BD0000CDA203F40360400B44000D00124F84005
:103BE00004430800B1400C43C117EAE71000190074
:103BF000002494E70000F07FF0B50C0D661E36053A
:103C0000891BE60A6405640D02D0651CED0A04D028
:103C1000002001210905803C2403A4461C0D671ED9
:103C20003F05DB1BE70A6405640D02D0651CED0A45
:103C300004D0002201231B05803C24037740644408
:103C400097B484B296B27443070C7E43150C6F434D
:103C500080B26843361802D3012000043F183004B4
:103C6000350C00197D41844688B29AB250430C0C41
:103C700062431F0C7C438EB27E43921902D301260D
:103C80003604A4191604170C3618674101BC81B21A
:103C90009AB25143040C62431B0C5C4380B25843FC
:103CA000121802D30120000424181004130C401829
:103CB00063412D185E410020474106BC88B293B293
:103CC00058430C0C6343120C544389B251435B18A4
:103CD00002D301210904641819041A0C091862415D
:103CE0006D1856410020474118BCF902720D11436E
:103CF000F0026A0D1043ED020A0D03D16D19404127
:103D00004941013B124E9B1B7600B3420ED26D001F
:103D100007D30130002671416646354301D1400882
:103D200040001B05C918E4072144F0BD0BDA01333C
:103D300006D1013004D101314F0D01D04908F2E71D
:103D4000E1070020F0BD013631050020EBE700005F
:103D5000FF030000F0B51C0D671E3F05DB1BE70AE3
:103D60006405640D02D0661CF60A04D0002201230B
:103D70001B05803C2403D0252D060026F6432E6625
:103D80001E096E66CE0FF619B44649004F0D02D0DB
:103D90007E1CF60A03D000200021403F3F033E1B5B
:103DA000B600B444013F7F05C91B49082E6F013698
:103DB00076089C02950D25437543ED137543AD13AD
:103DC00001356D10F603761B0CB4CC02450D2C4367
:103DD000A2B2B3B25A43270C7B43350C6F43A4B253
:103DE0006C431B1902D3012424043F191C041D0C2D
:103DF000A4187D4124196D41009A91B2ACB261437F
:103E0000170C7C432B0C5F4392B25A43A41802D385
:103E100001221204BF182204230C52187B41019C7A
:103E20006C431B19520ED9010A434401A01A81B2F6
:103E3000B2B2514303145A43360C734387B27743EB
:103E4000D617D21900277E4136049B191704160C89
:103E50007F185E417316ED18F3010026803375411B
:103E6000A90F06D16400690AE8055B0A184309D264
:103E70002FE00422944480337541A90AA8059B0AC7
:103E8000184326D3404149412404009A019B0D0068
:103E90005543641B4343E41A95B286B27543170C2D
:103EA0007E43030C5F4392B25A43B61802D30122F9
:103EB0001204BF183204330C52197B4152429C4108
:103EC000002C02D40022013051414008CA0710439F
:103ED000490802B06246D7079210084BD218084B27
:103EE0009A4203D212058918C919F0BD0020002A90
:103EF00001DC3900F0BD01331905F5E7FD030000D1
:103F0000FE070000002200B5203200F004F808008F
:103F100000BD000000220B150AD410B5944600F035
:103F200031F81414013400DA0021CB17144C204767
:103F30000020002170476244343A0CD40C2A07DA7E
:103F400004009140904052422032D440214310BDA1
:103F5000D843D94310BD203207D40C469440524276
:103F600020321141D040204310BD0800C917203233
:103F700003D452422032104110BD1800190010BD68
:103F8000373F00100A0DCC0F531E1B05C91A5205EE
:103F900003D3C943404200D30131520D03D0531C17
:103FA000DB0A07D0121B00206400611C89078912FC
:103FB000803A1203014BD21A70470000FF03000041
:103FC00051434343C9188C46110C83B24B4310B480
:103FD000040C614392B280B2504362431C041B0C38
:103FE000001910BC59411304120CC018514161440E
:103FF0007047000048404140484000239C46114B18
:104000005B68184700239C460E4B1B6818470E4AF6
:10401000936F9B0804D200239C460A4BDB68184729
:10402000F0B5146E556E576F166FFFF7F4FF064A22
:104030001466556657671667F0BD00239C46014B12
:104040009B68184724050020000000D0491A00286A
:1040500008D1084670470000C10FC90700D540428B
:10406000002817D0F44603B40B4B1B68984706BCD6
:1040700081409E384042803107D20B0607D049006C
:10408000490AC0051043084360470130F8E7490A70
:104090008902F5E7704700002005002000239C46B8
:1040A000014B5B6A184700002405002070B51323FC
:1040B0001E782A48FFF7F4F80500012E11D0012ED2
:1040C00009DDAB1E1B789B007F2B40DD244880223E
:1040D000290000F091F82348FFF7DAF8224B186026
:1040E00070BD1F485422290000F086F81F4B1A8823
:1040F0001F4B9A421CD1A7239B011A881D4B9A4241
:1041000016D11D4B1A881D4B9A4211D11C4B1A888F
:1041100094239B019A420BD11A4B1A881A4B9A424C
:1041200006D11A4B1A681A4B9A4201D1152307E09F
:104130001848FDF727FC184C094A99008C500133A8
:104140001F2BF8D9144B064A1362D361B7E7134B00
:10415000134A14484221FDF77BFBC046534600003A
:10416000240500204C33000020050020EE2900002B
:10417000C40F0000C20D0000962B0000C0B5000067
:10418000182B0000CC2A000010B50000FC2C000009
:1041900051ED8764244E0010A941001034550010E1
:1041A000B05500106855001007B56046002800D1D2
:1041B00000BE01880A0A0230DF2AFAD1C9B2820899
:1041C00004D3028840880004104300E00068024ADB
:1041D0005050039007BD0000240500200148042131
:1041E000014B184740020020B1320010014B1B6800
:1041F0001847000040020020014B5B681847000090
:104200004002002010B50300080011001B68984709
:1042100010BD0000F8B507000D001600437C002B10
:1042200002D0002400200CE0036811002800984709
:104230002DE03B7C10E03B68154802219847601C4C
:104240000134B44214DA002CF3DD2B19013B1B7846
:104250000D3B5A425341DBB22A5D0A2AF0D1002BB2
:10426000EED1A042E7DA3B68211A28189847E2E726
:10427000B04203DA3B68311A28189847002E06DD51
:10428000AD19013D2B780D3B5A4253413B74F8BDAB
:104290002856001070B505000368002B16D00C4B93
:1042A0001C6805E0290004C92000FFF7B3FFE4689B
:1042B000002C09D02368002BF9D0064B1B68002B7B
:1042C000F0D0A342F3D1EDE700232B6070BDC046D0
:1042D000F0030020F403002070B505000C000B680B
:1042E000802B05D023685A1C2260E418257170BD0C
:1042F0000800FFF7CFFFF5E710B582B0D0231B060B
:1043000000241C57074801A900F06EFA002806D1C6
:10431000019B9C4203D0034800F06EFA012002B0DA
:1043200010BDC0465002002010B5024800F044FA0B
:1043300010BDC04650020020F0B5CE46474680B5BD
:1043400083B006000D0090461C00FFF7D5FF8146A4
:104350006B1C05D0002C08D0194F1A4B1C6807E0C5
:10436000300000F0F9F90500F4E7174FF5E7E468CD
:10437000002C17D02368002BF9D0144B1B68002B9E
:1043800001D0A342F3D12A0031002000B8474346B0
:10439000002BECD06B46D91D0A230B7001222000A4
:1043A000B847E4E74B46002B07D16B1E9D41E8B2AE
:1043B00003B0C0BCB946B046F0BDFFF7B5FFF4E7A7
:1043C00005420010F003002015420010F403002005
:1043D00010B5064B1C6801E09847E468002C03D038
:1043E0006368002BF8D1F8E710BDC046F003002049
:1043F00070B5050000F0B0F90400002301220100AF
:104400002800FFF799FFFFF7E3FF200070BD0000D1
:1044100070B5A2B004000E00FFF76EFF0500842205
:10442000002101A8FFF7E2FE09483300220001A99C
:10443000FEF716FF040001A8FFF72CFFFFF7C8FFE7
:10444000002D02D1200022B070BDFFF76DFFF9E70B
:10445000D94200100FB400B583B004A901C901917D
:10446000FFF7D6FF03B008BC04B018470523CB56AE
:10447000002B01DB934211D1094B9C46604443421F
:104480005841084B8000C058097901238B40013BFB
:104490009340184043425841C0B270470020FCE7A7
:1044A0000000D0AF7003002070B50A79202A19D817
:1044B000174B9C46604443425841164B8000C458F9
:1044C00001239340013B497949B2002910DB0800E0
:1044D0002025AA1A914218DC8B401C4201D00120F1
:1044E000404270BD0C4B0D4A0D484021FDF7B0F91C
:1044F0002020801A002805DB1A0082401442F0D0E8
:104500000138F7E701204042EBE701204042E8E7AD
:104510000000D0AF700300202C560010D0560010C1
:104520005856001070B505000C001600FFF79EFFEE
:10453000002801D0002107E01548FDF723FA8B1968
:1045400012339B005A51013123798B420FD92278C3
:1045500063781B021343A27812041A43E3781B0604
:1045600013434A009A5A530BE9D19219E7E7012203
:104570009A401300013B074A944665446A425541FC
:10458000B3400549AD006A5813436B5070BDC04637
:10459000985600100000D0AF7003002010B582B014
:1045A0000A4B9C466044434258418400E31C08483F
:1045B000084A00922200FCF7AAF8844202DC001BA1
:1045C00002B010BD01204042FAE7C0460000D0AF63
:1045D00039060020AC560010F8B505000E00FCF7B7
:1045E00067F8070031002800FFF75EFF041E09DBB3
:1045F000020031002800FFF795FF3800FCF764F84F
:104600002000F8BD0148FDF7BDF9C04698560010DE
:10461000F0B505AC25784C006418E4000419DC34CE
:104620002468A446002D01D01F2614E0002612E0C5
:104630005401A0256D0525434C006418E4000419BD
:104640002700DC373D600D4D3543D8342560053BF0
:1046500005321F242240052BEAD89B065201134342
:104660004C006218D20082181500DC352B60034B19
:104670003343D832136063462B60F0BD80E0000006
:10468000F0B589B004000D00160002680121A940B0
:104690008A430260002B35D0186869004919C900A7
:1046A00061180A00C83210605868043210609868B7
:1046B00004321060DB68DC310B606A005319DB00E8
:1046C000D033E318802149010B438021090619608A
:1046D0001960204BAB40A3602168281D01231F00F7
:1046E00087403943216021682800083083400B430C
:1046F00023601F2333405219D200A418D8342360FA
:1047000009B0F0BD1022002104A8FFF76FFD80233F
:104710005B020493F8235B0205938023DB0206937C
:10472000C0231B030693102204A96846FFF764FD0B
:1047300000996B005B19DB00E3181A00C8321160A6
:10474000019904321160029904321160039ADC333A
:104750001A60B2E70101010110B583070AD0030016
:10476000032102E001330B4205D01A78002AF9D167
:10477000181A10BD030019680C4A0D4C8A188A4398
:1047800022420FD15968094A04338A188A432242C7
:1047900008D15968054A04338A188A432242F1D065
:1047A00000E001331A78002AFBD1E1E7FFFEFEFEAC
:1047B00080808080F8B5C04601B40248844601BCC0
:1047C000604700BF5101002001B40248844601BC8B
:1047D000604700BF9D01002001B40248844601BC2F
:1047E000604700BF9D01002001B40248844601BC1F
:1047F000604700BF0901002001B40248844601BCA3
:08480000604700BFC100002069
:1048080053797374656D20636C6F636B206F6620DA
:104818002575206B487A2063616E6E6F742062651F
:104828002065786163746C79206163686965766571
:1048380064000000444800101AFF000000E0C300B4
:10484800060001E0C300090002E0C900060002E01A
:10485800CD0001E0500042AC8900130042AA890053
:10486800130001E02BA042AD02E0D900570000E0A0
:1048780072742D3E616C61726D5F6964203D3D20EC
:1048880069640000433A5C565341524D5C73646B53
:104898005C7069636F5C7069636F2D73646B5C73C4
:1048A80072635C636F6D6D6F6E5C7069636F5F746C
:1048B800696D655C74696D652E6300006964202606
:1048C80026206964203C3D20706F6F6C2D3E686522
:1048D80061702D3E6D61785F6E6F646573000000D6
:1048E800256C6C64202868692025303278290000FE
:1048F8006964202626206964203C3D206865617033
:104908002D3E6D61785F6E6F64657300433A5C5647
:104918005341524D5C73646B5C7069636F5C706982
:10492800636F2D73646B5C7372635C636F6D6D6F23
:104938006E5C7069636F5F7574696C5C696E636CDB
:104948007564652F7069636F2F7574696C2F706853
:104958006561702E68000000706172656E745F6931
:10496800640000006368696C645F696400000000AB
:10497800706172656E745F696420213D20636869A7
:104988006C645F69640000002170685F636F6E7417
:1049980061696E735F6E6F646528706F6F6C2D3E12
:1049A800686561702C2072657573655F696429009C
:1049B80075735F73696E63655F626F6F74203C3DEA
:1049C80020494E5436345F4D41580000433A5C56F6
:1049D8005341524D5C73646B5C7069636F5C7069C2
:1049E800636F2D73646B5C7372635C636F6D6D6F63
:1049F8006E5C7069636F5F626173655C696E636C3E
:104A08007564652F7069636F2F74797065732E688C
:104A18000000000072656D6F7665645F6964203D13
:104A28003D206E6578745F696400000063616C6C9A
:104A38006261636B00000000706F6F6C2D3E616CEB
:104A480061726D5F696E5F70726F677265737320F4
:104A58003D3D206D616B655F7075626C69635F6970
:104A6800642869645F686967682C206E6578745F7C
:104A7800696429006964202626202170685F636FB5
:104A88006E7461696E735F6E6F64652868656170C6
:104A98002C2069642900000064656661756C745F88
:104AA800616C61726D5F706F6F6C5F696E6974695C
:104AB800616C697A65642829000000004174746596
:104AC8006D7074656420746F20736C6565702069FF
:104AD8006E73696465206F6620616E206578636512
:104AE8007074696F6E2068616E646C65723B2075C6
:104AF800736520627573795F7761697420696620D0
:104B0800796F75206D7573740000000075706461AD
:104B180074655F75735F73696E63655F626F6F74E9
:104B280000000000616C61726D5F706F6F6C5F6197
:104B38006C61726D5F63616C6C6261636B00000035
:104B48006765745F656E747279000000616C6172EC
:104B58006D5F706F6F6C5F6765745F6465666175C4
:104B68006C7400006765745F656E7472795F696460
:104B78005F6869676800000070685F667265655FF6
:104B88006E6F64650000000070685F6164645F6355
:104B980068696C645F6E6F646500000070685F69C7
:104BA8006E736572745F6E6F6465000070685F672E
:104BB80065745F6E6F6465006164645F616C6172E7
:104BC8006D5F756E6465725F6C6F636B00000000EB
:104BD800486172647761726520616C61726D20252D
:104BE8006420616C726561647920636C61696D65CC
:104BF8006400000074696D65725F68772D3E696EA8
:104C080074732026203175203C3C20616C61726DE4
:104C18005F6E756D00000000433A5C565341524D7B
:104C28005C73646B5C7069636F5C7069636F2D7330
:104C3800646B5C7372635C7270325F636F6D6D6F0F
:104C48006E5C68617264776172655F74696D6572C4
:104C58005C74696D65722E6300000000686172649F
:104C6800776172655F616C61726D5F7365745F74A3
:104C78006172676574000000746F74616C000000F5
:104C8800433A5C565341524D5C73646B5C70696384
:104C98006F5C7069636F2D73646B5C7372635C63C4
:104CA8006F6D6D6F6E5C7069636F5F73796E635C57
:104CB8006D757465782E63006D74782D3E636F7220
:104CC800652E7370696E5F6C6F636B006C6F636BDE
:104CD8005F69735F6F776E65725F69645F76616C39
:104CE8006964286D74782D3E6F776E6572290000AF
:104CF8006D74782D3E656E7465725F636F756E7442
:104D0800000000006D757465785F6578697400004F
:104D1800726F6F745F696400433A5C565341524D39
:104D28005C73646B5C7069636F5C7069636F2D732F
:104D3800646B5C7372635C636F6D6D6F6E5C7069DE
:104D4800636F5F7574696C5C70686561702E630071
:104D58002170685F6765745F6E6F64652868656158
:104D6800702C20726F6F745F6964292D3E736962BD
:104D78006C696E67000000002170685F6765745F8A
:104D88006E6F646528686561702C20726F6F745F40
:104D98006964292D3E706172656E7400666F756E68
:104DA800640000006E65775F7375625F7472656595
:104DB80020213D20686561702D3E726F6F745F69B8
:104DC8006400000070685F72656D6F76655F616E84
:104DD800645F667265655F6E6F64650070685F72B8
:104DE800656D6F76655F616E795F68656164000007
:104DF80070685F6164645F6368696C645F6E6F6448
:104E08006500000070685F6765745F6E6F646500B9
:104E18002C2066756E6374696F6E3A20000000007E
:104E2800617373657274696F6E2022257322206620
:104E380061696C65643A2066696C65202225732275
:104E48002C206C696E65202564257325730A000083
:104E580031203D3D202875696E747074725F742925
:104E68006C2D3E7370696E5F6C6F636B00000000A1
:104E7800433A5C565341524D5C73646B5C70696392
:104E88006F5C7069636F2D73646B5C7372635C72C3
:104E980070325F636F6D6D6F6E5C7069636F5F72A8
:104EA800756E74696D655C72756E74696D652E6377
:104EB800000000000A2A2A2A2050414E4943202A8D
:104EC8002A2A0A000A00000072756E74696D655F0F
:104ED800696E6974000000007372635F66726571C1
:104EE800203E3D206672657100000000433A5C5622
:104EF8005341524D5C73646B5C7069636F5C70699D
:104F0800636F2D73646B5C7372635C7270325F6382
:104F18006F6D6D6F6E5C68617264776172655F63F7
:104F28006C6F636B735C636C6F636B732E630000F1
:104F3800636C6F636B5F636F6E666967757265003C
:104F4800212864656C7461203E3E2031317529004A
:104F5800433A5C565341524D5C73646B5C706963B1
:104F68006F5C7069636F2D73646B5C7372635C72E2
:104F780070325F636F6D6D6F6E5C686172647761CC
:104F880072655F6972715C6972712E63000000005E
:104F980063757272656E74203D3D205F5F756E6843
:104FA800616E646C65645F757365725F69727120A8
:104FB8007C7C2063757272656E74203D3D2068614B
:104FC8006E646C65720000006972715F68616E647E
:104FD80065725F636861696E5F667265655F736C51
:104FE8006F745F68656164203E3D203000000000FA
:104FF800767461626C655F68616E646C6572203D91
:105008003D205F5F756E68616E646C65645F757383
:1050180065725F6972710000212828282875696EF9
:10502800747074725F7429767461626C655F68610C
:105038006E646C657229202D20282875696E74703D
:1050480074725F74296972715F68616E646C6572ED
:105058005F636861696E5F736C6F747329202D20BC
:1050680031292573697A656F66287374727563745C
:10507800206972715F68616E646C65725F636861F4
:10508800696E5F736C6F7429290000003078316392
:10509800203D3D20282A696E7374293E3E313175C2
:1050A8000000000021657863657074696F6E207C6C
:1050B8007C20657863657074696F6E203D3D206E55
:1050C800756D202B2031360066616C736500000019
:1050D80069735F7368617265645F6972715F726139
:1050E800775F68616E646C657228736C6F745F6853
:1050F800616E646C65722900657863657074696FA8
:105108006E0000006972715F6164645F7461696C4C
:105118005F746F5F667265655F6C69737400000029
:10512800696E736572745F6272616E63685F616EE7
:10513800645F6C696E6B00006972715F72656D6F98
:1051480076655F68616E646C657200006D616B65A1
:105158005F6272616E6368007265736F6C76655F1B
:105168006272616E636800006972715F7365745F73
:105178006578636C75736976655F68616E646C6584
:10518800720000006662646976203E3D2031362058
:105198002626206662646976203C3D203332300042
:1051A800433A5C565341524D5C73646B5C7069635F
:1051B8006F5C7069636F2D73646B5C7372635C7290
:1051C80070325F636F6D6D6F6E5C6861726477617A
:1051D80072655F706C6C5C706C6C2E630000000014
:1051E80028706F73745F64697631203E3D203120EA
:1051F800262620706F73745F64697631203C3D20E9
:1052080037292026262028706F73745F64697632E8
:10521800203E3D203120262620706F73745F64691C
:105228007632203C3D20372900000000706F7374EF
:105238005F64697632203C3D20706F73745F6469E7
:10524800763100007265665F6D687A203C3D2028E3
:1052580076636F5F66726571202F203136290000F2
:10526800706C6C5F696E697400000000666E692B73
:1052780000000000666E69006E616E00666E692D42
:1052880000000000BE2C00106E2C00106E2C0010C8
:10529800C82C00106E2C00106E2C00106E2C001004
:1052A8006E2C00106E2C00106E2C00106E2C00104E
:1052B800B42C00106E2C0010AA2C00106E2C0010BC
:1052C8006E2C0010A02C0010602D0010862D0010F0
:1052D800A42D0010862D0010402D0010862D0010E2
:1052E800862D0010862D0010862D0010862D0010AA
:1052F800862D0010862D00107C2D0010862D0010A4
:10530800862D0010862D0010862D0010862D001089
:10531800B02D001018320010E02D0010E02D001004
:10532800E02D0010E02D0010E02D0010E02D001001
:10533800E02D0010E02D0010E02D0010E02D0010F1
:10534800E02D0010E02D0010E02D0010E02D0010E1
:10535800E02D0010E02D0010E02D0010E02D0010D1
:10536800E02D0010E02D0010E02D0010E02D0010C1
:10537800E02D0010E02D0010E02D0010E02D0010B1
:10538800E02D0010E02D0010E02D0010E02D0010A1
:10539800E02D0010423000100230001042300010A2
:1053A800E02D0010E02D0010E02D0010E02D001081
:1053B800E02D0010E02D0010E02D0010E02D001071
:1053C800E02D0010E02D0010E02D0010E02D001061
:1053D800E02D0010E02D0010E02D0010E02D001051
:1053E800F42D0010E02D0010E02D0010E02D00102D
:1053F800E02D0010E02D0010E02D0010E02D001031
:10540800E02D0010E02D0010F42D00109230001057
:10541800F42D00104230001002300010423000100D
:10542800000000000000F03F0000000000002440E1
:1054380000000000000059400000000000408F40BC
:10544800000000000088C34000000000006AF84027
:105458000000000080842E4100000000D01263414B
:105468000000000084D797410000000065CDCD41C1
:105478002A282875696E74385F74202A29282828F4
:10548800766F6964202A29726F6D5F646174615F49
:105498006C6F6F6B757028726F6D5F7461626C658D
:1054A8005F636F6465282753272C202746272929FF
:1054B800292D322929202A2034203E3D2053465FB9
:1054C8005441424C455F56325F53495A45000000EB
:1054D800433A5C565341524D5C73646B5C7069632C
:1054E8006F5C7069636F2D73646B5C7372635C725D
:1054F80070325F636F6D6D6F6E5C7069636F5F6450
:105508006F75626C655C646F75626C655F696E6906
:10551800745F726F6D2E63005F5F61656162695FC2
:10552800646F75626C655F696E6974002A282875F6
:10553800696E74385F74202A2928726F6D5F7461F0
:10554800626C652D322929202A2034203E3D2053C3
:10555800465F5441424C455F56325F53495A4500B5
:10556800433A5C565341524D5C73646B5C7069639B
:105578006F5C7069636F2D73646B5C7372635C72CC
:1055880070325F636F6D6D6F6E5C7069636F5F66BD
:105598006C6F61745C666C6F61745F696E69745F6F
:1055A800726F6D2E630000005F5F61656162695F05
:1055B800666C6F61745F696E69740000446562753A
:1055C80067000000626F6F74325F77323571303870
:1055D80030000000312E332E300000007069636FF8
:1055E800000000006D756C7469736C6F7065000065
:1055F8004D61722033302032303232000600525072
:10560800BBFF3CB6E455001006005250E182887F8B
:10561800CC55001006005250D3F07542C455001006
:105628000D0A000070726F6772616D2D3E6C656EB9
:10563800677468203C3D2050494F5F494E5354528F
:10564800554354494F4E5F434F554E540000000098
:10565800433A5C565341524D5C73646B5C706963AA
:105668006F5C7069636F2D73646B5C7372635C72DB
:1056780070325F636F6D6D6F6E5C686172647761C5
:1056880072655F70696F5C70696F2E63000000005F
:105698004E6F2070726F6772616D20737061636501
:1056A800000000004E6F2050494F207374617465EC
:1056B800206D616368696E6573206172652061762B
:1056C80061696C61626C65005F70696F5F66696EC5
:1056D800645F6F66667365745F666F725F70726F22
:0856E8006772616D0000000013
:1056F000B4020010A80200109C0200100456001012
:0C57000090020010105600101C56001003
:10570C0010B5D0231B0600241C570268EFF3108140
:10571C0072B61368002BFCD0BFF35F8F0423C35603
:10572C00002B08DB0368BFF35F8F00221A6081F344
:10573C00108820BFE9E704710368BFF35F8F002274
:10574C001A6081F3108810BD03000068EFF3108C11
:10575C0072B60268002AFCD0BFF35F8F04229A56FF
:10576C00002A0BDB002910D00A6000201B68BFF355
:10577C005F8F00221A608CF310887047D0221206BB
:10578C00127852B21A710120F0E70020EEE7000007
:10579C0010B50268EFF3108172B61368002BFCD0C1
:1057AC00BFF35F8F0423C356002B0ADBFF23037167
:1057BC000368BFF35F8F00221A6081F3108840BF2B
:1057CC0010BD034B034A0448A92100F009F8C04658
:1057DC00D44C00100C4D0010884C00107047C04683
:1057EC0001B40248844601BC604700BF5118001048
:1057FC0010000000CC01002000000000700200200E
:10580C00B00300200000000000000000C0030020D6
:10581C00000000000000000010000000000000006C
:10582C000000010000000000000000000000020069
:10583C000000000000000000000003000000000059
:10584C00000000000000FF000000000000B54868E8
:10585C0001318E460047704609380149884700BD22
:10586C00B91E001000000000000000000000000045
:10587C00503300004C33000054330000523300000E
:10588C004D5300004D4300005334000043340000DE
:10589C000000000000000000DD410010813200100B
:0C58AC0091390010AD400010ED0200101A
:04000005100001E9FD
:00000001FF
